:020000040000fa
:10000000f0ff032091bc0300e3d00300e5d0030020
:10001000e9d00300ebd00300edd0030000000000a6
:1000200000000000000000000000000059940300e0
:10003000e7d0030000000000b994030025950300f9
:100040003f5603003f5603003f5603003f56030050
:100050003f5603003f5603003f5603003f56030040
:100060003f5603003f5603003f5603003f56030030
:100070003f5603003f5603003f5603003f56030020
:100080003f5603003f5603003f5603003f56030010
:100090003f5603003f5603003f5603003f56030000
:1000a0003f5603003f5603003f5603003f560300f0
:1000b0003f5603003f5603003f5603003f560300e0
:1000c0003f5603003f5603003f5603003f560300d0
:1000d0003f5603003f5603003f5603003f560300c0
:1000e0003f5603003f5603000000000000000000e0
:1000f000000000003f5603003f5603003f56030038
:100100003f5603003f560300593903005939030095
:1001100059390300593903003f5603003f56030085
:100120003f5603003f5603003f5603003f5603006f
:100130003f5603003f5603003f5603003f5603005f
:100140003f5603003f5603003f5603003f5603004f
:100150003f5603003f5603003f5603003f5603003f
:100160003f5603003f5603003f5603003f5603002f
:100170003f5603003f5603003f5603003f5603001f
:100180003f5603003f5603003f5603003f5603000f
:10019000193502003f5603003f5603003f56030047
:1001a0003f5603003f5603003f5603003f560300ef
:1001b0003f5603003f5603003f5603003f560300df
:1001c0003f5603003f5603003f5603003f560300cf
:1001d0003f5603003f5603003f5603003f560300bf
:1001e0003f5603003f5603003f56030081a903001a
:1001f00041ae03003f5603003f5603003f56030045
:100200003f5603003f5603003f5603003f5603008e
:100210003f5603003f5603003f5603003f5603007e
:100220003f5603003f5603003f5603003f5603006e
:100230003f5603003f5603003f5603003f5603005e
:100240003f5603003f5603003f5603003f5603004e
:100250003f5603003f5603003f5603003f5603003e
:040260003f56030002
:020000040000fa
:10026400f8b500bff8bc08bc9e46704731c803000f
:10027400f8b500bff8bc08bc9e4670470dc8030023
:020000040000fa
:08028400f07c03000100000002
:020000040000fa
:10028c0010b40b689c1c944208d8c25c052a0ad096
:10029c006ff0900004e06ff0910001e06ff08300cc
:1002ac005df8044b704718444378002bf3d10c6075
:1002bc000020f5e730b40b68dc1c94420ed85d1cb2
:1002cc00c25c012a0dd10233425d012a0cd1c05c03
:1002dc000c60003018bf012030bc70476ff08300f9
:1002ec00fae76ff08b00f7e76ff08b00f4e7f0b4f0
:1002fc00076800290edd3b78c3b94d1e3d443b46d3
:10030c00c7f10106f418ab420cd013f8012f002ae8
:10031c00f8d001e0002421b927440760081bf0bc89
:10032c0070470024a142f7d1013cf5e70024f3e724
:10033c0000b583b001aa002108f01cfc002807dbe3
:10034c00019b002b08bf6ff0840003b05df804fb29
:10035c006ff08400f9e7f8b50e460699002b5fd0d4
:10036c001f4600295edd002e5ed0002a5edd33784c
:10037c002e2b5dd091425ddc441e012c0ad9042841
:10038c005ad10a46394630463cf08cfdb0fa80f022
:10039c00400948e0012813d0521a164434460e4442
:1003ac0014f8010b3cf089fe054617f8010b3cf0e4
:1003bc0084fe854242d1331b002bf1dc012032e05c
:1003cc0097f800e0bef12e0f0cd0bef1400f23d0f9
:1003dc003d460024013415f801cfbcf1400f11d07b
:1003ec00a142f7dc402b14d034460023013314f81f
:1003fc00015f402d24d09942f8dcbef12e0fcbd0fa
:10040c001146cbe7a142edddbef12e0fc4d0114653
:10041c0003e03446002315e011460029bedc02e05f
:10042c00002000e00020f8bd0020fce70020fae7e7
:10043c000020f8e70020f6e70020f4e70020f2e7c0
:10044c009942dadd661c0133d21adde770b582b051
:10045c00064615460c4619b9002013e0246884b1f1
:10046c00237bab42fad1b268a1688a42f6db63689f
:10047c000091f1682846fff76eff0028eed00120ae
:10048c0000e0002002b070bd11b3f0b583b0064699
:10049c0015460c460022012702e03a4624687cb13e
:1004ac00237bab42fad1b268a1688a42f5db636860
:1004bc000091f1682846fff74eff38b93a46ede750
:1004cc0012b9012003b0f0bd0020fbe70120f9e7d1
:1004dc00012070476bb138b51d460c460a461946cb
:1004ec003cf012fe28463cf0c9fda04228bf204635
:1004fc0038bd002070477f281cd930b4030e1ed1a4
:10050c00030c1ad1030a002b0cbf0125022565f040
:10051c007f0301f8013b05f10053013bdb004c1953
:10052c0020fa03f201f8012b083ba142f8d1681c18
:10053c0030bc70470870012070470325e7e704259d
:10054c00e5e7f0b40c6800251560671c9f423bd8aa
:10055c000519005d10f0800f0ad1049c14b1c41968
:10056c009c423dd80f60002800dd1060f0bc704745
:10057c0000f07f06802822d0012e37d0042e26d8fa
:10058c0006f1005c0cf1ff3c4feacc004ff0010c83
:10059c000cfa00fcb81998421cd89eb107462c46a0
:1005ac002e44002014f8015f45ea0020b442f9d132
:1005bc00002812db6045d0da6ff08b00d6e74ff0e5
:1005cc00000ce7e70020f5e76ff08300cee76ff053
:1005dc008b00cbe76ff08300c8e76ff08b00c5e7ab
:1005ec006ff08300c2e76ff08300bfe73744bb4274
:1005fc00f9d34ff0800cd2e710b582b001240094ef
:10060c00fff79fff02b010bd2de9f04583b00a9fa4
:10061c0078b3044681b30d68681c0b9eb0422ed88b
:10062c0014f805800860a8f11700c0b2012829d879
:10063c009a4616460d460b9b01aa2046fff7dcff97
:10064c00002822db019aa2f10c03142b20d8baf15a
:10065c00000f01d08af8008016b12b681c4434605e
:10066c0007b13a602b6813442b60002003b0bde83f
:10067c00f0856ff0ac00f9e76ff0ac00f6e76ff0c7
:10068c008300f3e76ff09800f0e76ff08b00ede775
:10069c006ff09400eae782b130b4144681b190b1a6
:1006ac000d686a1c9a4288bf6ff0830003d8435dc3
:1006bc0023700a60002030bc70476ff0ac007047ac
:1006cc006ff0ac00f7e76ff0ac00f4e7f0b587b073
:1006dc0007460d4614461e461368059300230393e4
:1006ec000c9b0df1130205a9fff7d5ff30b99df84e
:1006fc001330ab4209d06ff08b0001e06ff08b0030
:10070c0007b0f0bd6ff08b00fae70d9b00930c9bcc
:10071c0003aa05a93846fff714ff0028f2db03985b
:10072c003060059b2360ebe770b582b006460d4642
:10073c00144601220192009323460a460221fff738
:10074c00c5ff002820db2368012b1cdd2b68f25c25
:10075c00ff2a0fd0e2b901332b602368013b2360e1
:10076c00002b13dd2b68f356002bb4bf00206ff069
:10077c008b0009e01e4496f90130002bb4bf6ff0da
:10078c008b00002000e0002002b070bd0020fbe7d1
:10079c000020f9e770b582b006460c461546126883
:1007ac0001926a4601a92046fff7beff0346b8b97d
:1007bc00019be256002a03da234413f8013cc3b927
:1007cc00304609f0a4f9b8b9009a01992144304691
:1007dc0009f023fa034630b9019a00990a442a60b9
:1007ec00184602b070bd304609f0caf96ff08d039f
:1007fc00f6e76ff06d03f3e76ff06d03f0e710b5fc
:10080c0082b001240194009313460a463021fff76d
:10081c005dff02b010bd10b582b0049c0194009332
:10082c0013460a463021fff751ff02b010bd10b538
:10083c0082b001240194009313460a463121fff73c
:10084c0045ff02b010bd10b582b0049c019400931a
:10085c0013460a463121fff739ff02b010bd10b51f
:10086c0082b001240194009313460a460421fff739
:10087c002dff02b010bdb0f5227f20d00edc40f26f
:10088c000b2398421dd0b0f5037f1cd0b0f5027f2e
:10089c001048a0f1500318bf1846704740f28f2340
:1008ac00984212d040f29223984210d040f2892301
:1008bc0098420948a0f17c0318bf184670470748b6
:1008cc007047074870470748704707487047074804
:1008dc00704700bf7c470300a84703003447030060
:1008ec008847030098470300644703004c47030004
:1008fc0070b582b00c68019403349c4218d816462b
:10090c000d4604460df1030201a9fff7c4fe90b990
:10091c009df80330022b11d1019b591ce25c012a7a
:10092c000fd1625c326002332b60306802b070bd54
:10093c006ff08b00fae76ff08b00f7e76ff08b002e
:10094c00f4e76ff08c00f1e770b582b006460c4608
:10095c001546126801926a4601a92046fff7e4fe8b
:10096c00034610b1184602b070bd304609f0cff8fe
:10097c0090b9009a01992144304609f04ef903468a
:10098c0020b9019a00990a442a60ebe7304609f035
:10099c00f7f86ff08d03e5e76ff06d03e2e72de9f3
:1009ac00f04784b004460d4617469946ddf834a04e
:1009bc000a6803920df1070203a9fff76cfe0028e9
:1009cc0037d180469df80730032b35d14b4602aa10
:1009dc0003a92046fff710fe002830db029a002afc
:1009ec0030dd0399481c48452fd8635c8df80730df
:1009fc000c9e6eb163bb28600fb1013a3a60baf13c
:100a0c00000f01d08af80030404604b0bde8f087f2
:100a1c00072b20d8002beed014440c4414f8011ce6
:100a2c00c3f10804a14011f0ff0fe4d06ff08b0864
:100a3c00eae76ff09208e7e76ff09208e4e76ff0ef
:100a4c008b08e1e76ff08308dee76ff08308dbe7e4
:100a5c006ff09108d8e76ff08b08d5e700b583b03d
:100a6c000023019313600f2900f28680dfe811f058
:100a7c00100032006f0081008800840016011d02f6
:100a8c002c0234023c026f02aa02c6027802dd027a
:100a9c00b0f5cf7f19d00cd940f2a11398420fd0ea
:100aac0040f28923984267d1644b01930823136069
:100abc0062e0582860d1624b0193052313605be020
:100acc00604b01930923136056e05f4b019309239c
:100adc00136051e0b0f5227f20d00ed840f20b23ea
:100aec0098422ad0b0f5037f2cd0b0f5027f43d1c9
:100afc00564b0193072313603ee040f28f2398423c
:100b0c0016d040f2922398420dd040f2892398429d
:100b1c0032d14f4b0193092313602de04d4b0193c0
:100b2c000923136028e04c4b01930923136023e045
:100b3c004a4b0193092313601ee0494b0193082390
:100b4c00136019e0474b01930823136014e040f243
:100b5c000623984208d040f2852398420cd1424b90
:100b6c0001930923136007e0404b019307231360a3
:100b7c0002e001a907f0feff019803b05df804fb49
:100b8c00b0f5db7f3bd00fd9b0f5e57f3cd025d855
:100b9c0040f2b713984241d0b0f5e37fecd1344b1f
:100bac00019309231360e7e7b0f5d17f22d009d870
:100bbc0045283dd0b0f5cf7fded12e4b01930923d4
:100bcc001360d9e740f2a313984222d0b0f5d97f35
:100bdc00d2d1294b019309231360cde740f2cb13fb
:100bec00984220d0b0f5237fc6d1244b0193082323
:100bfc001360c1e7224b019309231360bce7214b1f
:100c0c00019309231360b7e71f4b0193092313606a
:100c1c00b2e71e4b019309231360ade71c4b019304
:100c2c0009231360a8e71b4b019309231360a3e767
:100c3c00194b0193052313609ee700bfc0470300c7
:100c4c00c8470300d0470300dc47030018480300e3
:100c5c00f4470300e8470300004803000c48030076
:100c6c002048030028480300304803003c48030098
:100c7c005c4803004448030050480300b848030094
:100c8c006848030074480300804803008c48030044
:100c9c0098480300a4480300b04803004538632873
:100cac003ff66aaf01a353f820f000bf670e0000b7
:100cbc00850b0000850b0000850b0000850b0000e8
:100ccc00850b0000850b0000850b0000850b0000d8
:100cdc00850b0000850b0000850b0000850b0000c8
:100cec00850b0000850b0000850b0000850b0000b8
:100cfc00850b0000850b0000850b0000850b0000a8
:100d0c00850b0000850b0000850b0000850b000097
:100d1c00850b0000850b0000850b0000850b000087
:100d2c00850b0000850b0000850b0000850b000077
:100d3c00850b0000850b0000850b0000850b000067
:100d4c00850b0000850b0000850b0000850b000057
:100d5c00850b0000850b0000850b0000850b000047
:100d6c00850b0000850b0000850b0000850b000037
:100d7c00850b0000850b0000850b0000850b000027
:100d8c00850b0000850b0000850b0000850b000017
:100d9c00850b0000850b00007b0e00008f0e000001
:100dac00850b0000530e0000850b0000490e00005f
:100dbc00850b0000850b0000850b0000850b0000e7
:100dcc00850b0000850b0000850b0000850b0000d7
:100ddc00850b0000850b0000ad0e00005d0e0000c1
:100dec00850e0000850b0000850b0000710e0000c5
:100dfc00850b0000a30e0000850b0000850b000086
:100e0c00850b0000850b0000850b0000850b000096
:100e1c00850b0000850b0000850b0000850b000086
:100e2c00850b0000850b0000850b0000850b000076
:100e3c00850b0000850b0000990e0000844b01937c
:100e4c000323136098e6834b01930323136093e60b
:100e5c00814b0193032313608ee6804b019308238f
:100e6c00136089e67e4b01930323136084e67d4b6c
:100e7c000193032313607fe67b4b019303231360e1
:100e8c007ae67a4b01930323136075e6784b019352
:100e9c000323136070e6774b0193032313606be617
:100eac00754b01930323136066e6742807d07528ed
:100ebc007ff462ae714b0193082313605ce6704bb8
:100ecc0001930823136057e692287ff455ae6d4bbf
:100edc000193042313604fe64f287ff44dae6a4b09
:100eec0001930823136047e64a2826d00ad84828dd
:100efc0019d01dd847287ff43fae644b01930823cb
:100f0c00136039e64f281dd0972807d04e287ff460
:100f1c0033ae5f4b0193082313602de65d4b0193b9
:100f2c000423136028e65c4b01930823136023e62b
:100f3c005a4b0193082313601ee6594b0193082367
:100f4c00136019e6574b01930823136014e6b0f5b0
:100f5c00257f7ff411ae544b0193092313600be6ec
:100f6c000d280ed012d940f29223984220d015d9d8
:100f7c0040f29323984220d040f2952398427ff47c
:100f8c00fbad4a4b019309231360f5e502280fd002
:100f9c00032812d000287ff4efad04e040f28b233d
:100fac0098427ff4e9ad424b019309231360e3e5ca
:100fbc00404b019309231360dee53f4b01930a2359
:100fcc001360d9e540f2b51398420dd040f2c91325
:100fdc0098420ed040f2a11398427ff4cdad374b1e
:100fec00019309231360c7e5354b01930923136063
:100ffc00c2e5344b019309231360bde5bd280fd026
:10100c00b0f5e87f07d0bc287ff4b6ad2e4b01932a
:10101c0006231360b0e52d4b019309231360abe558
:10102c002b4b019306231360a6e5b0f5237f09d063
:10103c0040f28d2398427ff49fad264b01930823f9
:10104c00136099e5244b01930823136094e500bfca
:10105c00c0480300c4480300c8480300cc48030040
:10106c00d4480300d8480300dc480300e0480300e0
:10107c00e4480300e8480300ec480300f848030088
:10108c00f048030000490300044903001049030021
:10109c00304903000c4903001849030020490300a0
:1010ac0028490300384903004049030070490300f4
:1010bc004c49030058490300644903007c49030070
:1010cc008849030094490300ac490300a04903007c
:1010dc00b4490300c4490300bc49030010b582b0f5
:1010ec0001240194009313460a460621fff7eefaf9
:1010fc0000eae07002b010bd10b582b00c460b686f
:10110c00019313466a4601a9fff7e8ff024618b996
:10111c00019b00990b442360104602b010bd2de9d1
:10112c00f04782b006460f46144698460a9b01aa21
:10113c00fff7d4ff054618b1284602b0bde8f0878a
:10114c00ddf80490d7f800a000232360b9f1000f5c
:10115c0025d006eb0a0209eb0a0c06eb0c0012f880
:10116c00011b23680b4423608242f8d1c7f800c0ee
:10117c00b8f1150fe0d06a4641462068fff76efcc7
:10118c0001460028d8d0009a91450ad106eb0a00f6
:10119c003bf088fe051e18bf6ff09305cce7d446d4
:1011ac00e4e76ff09305c7e72de9f04186b00746f9
:1011bc000e46154698460c9c0b680493002313604e
:1011cc00234605aa04a9fff71afb002829db009483
:1011dc0043462a4604a93846fff7a1ff002823db23
:1011ec00049ba34206d3049b33600023184606b02d
:1011fc00bde8f081039323460df10b0203a9384699
:10120c00fff749fa0028eed19df80b30052bead1f7
:10121c00224604a93846fff733f803460028e2d0eb
:10122c00e4e76ff08b03e1e76ff08f03dee7002854
:10123c0049d0f0b587b00446002947d01e46154664
:10124c000f460b680593134603aa05a9fff7d7fab7
:10125c0000283edb2b4604aa05a92046fff748fbd5
:10126c00002839db00950223324605a92046fff7fa
:10127c009bff002833db2b460df10b0205a9204602
:10128c00fff709fa00282ddb059b013b05939df820
:10129c000b30062b0dd02b4603aa05a92046fff7d1
:1012ac00defa10f1840f20d0059b3b60039807b049
:1012bc00f0bd2a4605a92046fff71eff0028eadaf2
:1012cc006ff08b00f3e76ff0ac0070476ff0ac0081
:1012dc00ede76ff08b00eae76ff08b00e7e76ff05c
:1012ec008b00e4e76ff08b00e1e76ff08b00dee73b
:1012fc00f0b585b00024019400296bd00d46002870
:10130c006bd0002a6cd01e461746044601ab324601
:10131c00fff78dff334602aa29462046fff76ffae6
:10132c00002860db334603aa29462046fff7e0fa83
:10133c0000285bdb41f248130122fa5033462a465f
:10134c0021463846fff700fb002852db33462a467d
:10135c00214607f50a70fff7f7fa00284cdb3346f5
:10136c002a46214607f58a60fff7eefa002846db8d
:10137c0033462a46214607f5cf60fff7e5fa0028e9
:10138c0040db33462a46214607f50a60fff7dcfab4
:10139c0000283adb33462a46214607f6c820fff7d9
:1013ac00d3fa002834db33462a46214607f54f6032
:1013bc00fff7cafa00282edb33462a46214607f6e9
:1013cc001870fff7c1fa0028acbf00206ff08e0038
:1013dc0005b0f0bd6ff0ac00fae76ff0ac00f7e7ca
:1013ec006ff0ac00f4e76ff08b00f1e76ff08b005f
:1013fc00eee76ff08e00ebe76ff08e00e8e76ff032
:10140c008e00e5e76ff08e00e2e76ff08e00dfe70d
:10141c006ff08e00dce76ff08e00d9e700b583b07b
:10142c0001abfff704ff03b05df804fb70b582b0ad
:10143c0000230193a0b1044613460d460a4601a9a8
:10144c00fff7f5fe061e08db01997318ab420ad8ac
:10145c003246214420463bf011fb304602b070bdb1
:10146c006ff0ac06f9e76ff08306f6e700b583b0d2
:10147c0001aafff7dbff03b05df804fb68b103467c
:10148c0071b1086890420ed800b583b0184601ab14
:10149c00fff7cdfe03b05df804fb6ff0ac007047b6
:1014ac006ff0ac0070476ff0ac007047f0b587b0d0
:1014bc0000240594002800f089800546002900f0de
:1014cc0088801f4616460c46134605aafff797f967
:1014dc000028c0f281802368049333460df10f027b
:1014ec0004a92846fff7d7f8002878db9df80f30c1
:1014fc00022b33d0334605aa21462846fff77ff945
:10150c0000286fdb324621462846fff7f5fd002800
:10151c006bdb2368b3426bd2049333460df10f029d
:10152c0004a92846fff7b7f8002864db9df80f30b4
:10153c00052b42d000220192012300933346214611
:10154c002846fff72cfa0246002833d1334605aa69
:10155c0021462846fff753f900284fdb334605aaee
:10156c0021462846fff7e0f800284adb0c9b13b114
:10157c00059b0c9a136017b123682b443b602368be
:10158c00059a13442360334605aa21462846fff7e3
:10159c00cbf8021e38db0e9b13b1059b0e990b602a
:1015ac000d9b1bb123681d440d9b1d602368059981
:1015bc000b442360104607b0f0bd32462146284646
:1015cc00fef75efe02460028b4d0f3e76ff0ac02e3
:1015dc00f0e76ff0ac02ede76ff08b02eae76ff02b
:1015ec008302e7e76ff08b02e4e76ff08b02e1e731
:1015fc006ff08302dee76ff08b02dbe76ff08b029c
:10160c00d8e76ff08e02d5e76ff08e02d2e72de9a6
:10161c00f041069cc0b30546cab3dcb31f46164660
:10162c00884641f248130022e250204608f06ffa37
:10163c0098bb42462946204608f0effa78b904f5e3
:10164c000a75284608f063fa78b93a4631462846b6
:10165c0008f0e3fa034670b91846bde8f08120465d
:10166c0008f08efa6ff08d03f6e7204608f088fa42
:10167c006ff06d03f0e7204608f082fa284608f078
:10168c007ffa6ff08d03e7e76ff0ac03e4e76ff0e0
:10169c00ac03e1e76ff0ac03dee76ff06d03dbe763
:1016ac0010b588b000240794069405940494c2b134
:1016bc0014461a4604ab029306ab019305ab009398
:1016cc0007abfff7f3fe034610b1184608b010bd88
:1016dc000094049b069a05990798fff798ff034618
:1016ec00f3e76ff0ac03f0e738b5044640b938bd0a
:1016fc0039f0e0fd204639f0ddfd2c46002df6d00a
:10170c002568e0680028f3d1f4e708b5102038f01c
:10171c00fbf9034620b10022026042608260c26085
:10172c00184608bd38b5044640b938bd39f0c2fd7d
:10173c00204639f0bffd2c46002df6d02568606898
:10174c000028f3d1f4e708b533f0b3fe08bd2de95a
:10175c00f04f93b00c46002967d100f16d0305934f
:10176c0000f14c05d0f87832934280f096810494c5
:10177c0014460746109313460df13f0210a9d0f8fa
:10178c007402fef788ff0028c0f28a819df83f3072
:10179c00062b50d0d7f87832109323460df13f0228
:1017ac0010a9d7f87402fef776ff0028c0f27b81ef
:1017bc00d7f8783201331093234611aa10a9d7f821
:1017cc007402fef719ff0028c0f27081d7f8780276
:1017dc00109a119b02eb030aaaeb00011191d7f8a6
:1017ec0074820a902a46404433f063fe0790002826
:1017fc0040f04d81534608aa0aa94046fef7ffff68
:10180c000028c0f24781049b012b20d00a9e089b24
:10181c00334408939e4280f038810025ab46ba4b86
:10182c0003f52c730693b946e9e000f26d130593aa
:10183c0000f1380596e7224607f51e71d7f87402b9
:10184c00fff75afc0028a5da6ff08b04b6e00a9b70
:10185c004344c7f81033089bc7f81433d6e7042a5f
:10186c0005d0cdf808b0cdf80cb05f4656e0b47892
:10187c000a900433534500f229810d9318f8007037
:10188c000123009353460eaa0da94046fef759febc
:10189c000028c0f21b810e9e0c960d9b0a93002e05
:1018ac00c0f2ed80032c19d0042c00f01281062c10
:1018bc0000f01b81072c00f01d81082c00f01f810b
:1018cc000a2c00f023810b2c00f02581052c00f054
:1018dc002781122c00f029810c9e8ae0049a012a9f
:1018ec000ad0331dc5f58072934200f38280864b7b
:1018fc0003f52e7104246fe04344c9f86430c9f831
:10190c00686089f86c70ece7862a14bf594601218f
:10191c00029114bf5f469827cdf80cb001330b9a97
:10192c0013440a9353460caa0aa94046fef764fed8
:10193c000028c0f2a780c5f580730c9eb342acbfe3
:10194c0000220122029969b306f10e018b42a7bf56
:10195c006d4901f52871029a59460498012819d04d
:10196c000e2420e008eb03020b990a4412f8017cc8
:10197c00012f04d0cdf808b001220392cee70397d3
:10198c00cdf808b01227c9e7cdf808b0cdf80cb0e7
:10199c005f46c3e70a984044c9f81803c9f81c63aa
:1019ac000e2400e05946039870b1122f0ad0192f5b
:1019bc007fd0052f00f085806ff08b04204613b08c
:1019cc00bde8f08f052406990c9e3019c5f580737f
:1019dc0098420edc69b162b92246059f78193bf03a
:1019ec0008fb254432460a99414478193bf001fb27
:1019fc0035440a9b1e440a96089b9e4231d2cdf870
:101a0c0030b0534609aa0aa94046fef710ff5346c8
:101a1c0009aa0aa94046fef7f2fe002829dd534622
:101a2c000baa0aa94046fff759fb04460028c5d16a
:101a3c000a9bd81c50451fd808eb030618f8031056
:101a4c00727855293ff40baf2a293ff45daf092971
:101a5c009ad1922a86d0cdf808b0cdf80cb05f465a
:101a6c005ce74f460023059a5355c7f87862079cec
:101a7c00a4e76ff08b04a1e76ff08b049ee76ff087
:101a8c008b049be76ff08b0498e70025eae76ff077
:101a9c008b0493e76ff08b0490e76ff083048de772
:101aac006ff08b048ae76ff08b0487e76ff08b0481
:101abc0084e70424144901f53071301983428ada21
:101acc0097e71024104901f53271f6e76ff08b049b
:101adc0074e704240c4b03f53e710c9ec5f5807322
:101aec00a219934285db5a4675e70324064b03f58e
:101afc003d71f2e70324044b03f53c71ede704243c
:101b0c00014b03f53a71e8e72c4703000324084b1b
:101b1c0003f53971e1e70424054b03f53771dce774
:101b2c000e24034b03f54071d7e705240699d4e73f
:101b3c002c470300f8b505460f4614461e462c22ca
:101b4c00002120463bf092fa172f40f0b580336805
:101b5c00eb5c303b042b8cbf40f26c734ff4fa639c
:101b6c00636131686b5ca3f13002d2b2092a00f2d6
:101b7c00cd80481c2a5c303ad2b2092a00f2c880c7
:101b8c00303b03eb8303626902eb430262612b5c23
:101b9c00303b13446361023131606369a3f26c73af
:101bac00636131686b5ca3f13002d2b2092a00f296
:101bbc00b180481c2a5c303ad2b2092a00f2ac80bf
:101bcc00303b03eb8303226902eb430222612b5c63
:101bdc00303b13442361023131602369013b2361a3
:101bec0031686b5ca3f13002d2b2092a00f2968004
:101bfc004f1cea5d303ad2b2092a00f29180303b98
:101c0c0003eb8303e06800eb4300e0608a1ceb5db0
:101c1c00303b0344e3603260ab5ca3f13002d2b2e0
:101c2c00092a7fd8cf1cea5d303ad2b2092a7bd878
:101c3c00303b03eb8303a06800eb4300a0600a1d5c
:101c4c00eb5d303b0344a3603260ab5ca3f130022c
:101c5c00d2b2092a6ad84f1dea5d303ad2b2092aab
:101c6c0066d8303b03eb8303606800eb4300606095
:101c7c008a1deb5d303b034463603260ab5ca3f1c7
:101c8c003002d2b2092a37d8c81d2a5c303ad2b2f7
:101c9c00092a34d8303b03eb8303226802eb43025e
:101cac0022602b5c303b13442360083131600020f0
:101cbc00b0fa80f04009f8bd31686b5ca3f13002da
:101ccc00d2b2092a1ed8481c2a5c303ad2b2092a50
:101cdc001ad8303b03eb8303626902eb4302626167
:101cec002b5c303b134463610231316062696423c5
:101cfc0003fb02f3636134e76ff08b00d8e76ff0fe
:101d0c008b00d5e70020d6e70020d4e70020d2e7ef
:101d1c000020d0e70020cee70020cce70020cae767
:101d2c000020c8e70020c6e70020c4e70020c2e777
:101d3c000020c0e742694b699a423edc01d000208a
:101d4c00704702690b699a4239dc01d00020704758
:101d5c00c268cb689a4234dcc268cb689a4209d01c
:101d6c00c268cb689a420bd0c268cb689a4211d039
:101d7c000020704782688b689a42f1dd0120704721
:101d8c0082688b689a42efd142684b689a42ebddcd
:101d9c000120704782688b689a4201d000207047fe
:101dac0042684b689a4201d00020704700680b686b
:101dbc009842d4bf002001207047012070470120b9
:101dcc00704701207047024b18600020704700bf1d
:101ddc0080e8002008b5044b1b680bb1984708bd80
:101dec003bf012f9fbe700bf80e80020f0b58fb0a4
:101dfc0004460e46154600200190fff7ebff0d90b0
:101e0c0001ab02aa31462046fff794fe0346c8b147
:101e1c00019be25c2b2a1ad02d2a1bd05a2a10d1f6
:101e2c0000234ee002a9fff785ffb0fa80f35b09af
:101e3c0008e0002306e0002304e0002302e0002376
:101e4c0000e0002318460fb0f0bd0023fae7013381
:101e5c00012602e001334ff0ff36e05ca0f13002c6
:101e6c00d2b2092ae5d8e2185178a1f13002d2b2e7
:101e7c00092ae0d89a1ca75ca7f13002d2b2092a31
:101e8c00dbd81c44e278a2f13004e4b2092cd6d899
:101e9c0004330193303800eb8000303901eb400300
:101eac00c3eb0311a7f1300303eb8300a2f1300362
:101ebc0003eb400303eb810306fb03f3c3eb0313b8
:101ecc009b000d9ad31a0d930da83bf023f9002813
:101edc00bbd0002da6d1014602a8fff72bffb0fa0c
:101eec0080f35b09aee7f0b58fb0044615460022cf
:101efc000c920e4659bbd0f87422d0f878120a44d2
:101f0c00c0f80023d4f8787201930dab00930df157
:101f1c000f030caa04f51e71d4f87402fef774fbbf
:101f2c00002831db2022002104a83bf09ff80d9af9
:101f3c000c9904a83bf05df88eb9d4f87832df1b0d
:101f4c00c4f80473fdb1052d0fd100201ce0d0f8ae
:101f5c007422d0f878120a44c0f80823d2e7d4f8d7
:101f6c007832df1bc4f80c73ece732469df80f1087
:101f7c0004a8fff73bff48b9002e0cbf6ff095008b
:101f8c006ff0960000e028460fb0f0bd0020fbe794
:101f9c0048b110b50446032908d90020fff71afff1
:101fac002060002010bd6ff0ac0070476ff0830014
:101fbc00f8e710b584b000240394019106990091c0
:101fcc0003a9fef721fb04b010bd00b583b0114688
:101fdc001a460023019301abfff7acfd002814bf98
:101fec0000206ff0980003b05df804fb7f2816d931
:101ffc0070b4030e19d1030c15d1030a002b0cbfbe
:10200c0001240224e5b211b165f07f030b704b1c67
:10201c00013dedb28e1c2e440c44e4000ae0b1b13b
:10202c000870012070470324ece70424eae701332d
:10203c00b34209d00029fad0c3eb437204ebc202bd
:10204c0020fa02f21a70f2e7a81c70bc704701204b
:10205c00704738b515460ab1022313704cb2002ce8
:10206c0006db03467db1691cfff7c0ff013038bdac
:10207c00431c45b1691c1846fff7b8ff0544002303
:10208c006b700230f3e700211846fff7afff002c0e
:10209c00f7db0130ebe72de9f04180460e461546a3
:1020ac0009f04efc0746404607f0abfd0446002ef7
:1020bc0028db431c002f18bf0133b34206dc77b971
:1020cc002a460021fff7c5ff07460ee06ff083009c
:1020dc0016e06ff0830013e06ff0700010e02a46fa
:1020ec0080212046fff7b5ff0746e319b342f0dc29
:1020fc002db1e919404609f004fc0028ecd1e01997
:10210c00bde8f08137b92a4600212046fff7a1ff30
:10211c000746ede72a468021fff79bff0746e7e7d6
:10212c0038b562b10d4614461146032301f8013b44
:10213c000130fff75bff04446570023038bd0021ad
:10214c000130fff753fff8e708b50b4611b1062233
:10215c0003f8012b1946fff749ff013008bdc8b140
:10216c002de9f04105460069b8b190460c46876ae6
:10217c003846fff7e9ff064654b1474510d82b699e
:10218c003a46596a20183af034fff019bde8f0814c
:10219c003844fbe76ff0ac0070476ff0ac00f5e72c
:1021ac006ff08300f2e708b50b4611460ab101f84f
:1021bc00010b1846fff71aff013008bd08b50a4697
:1021cc0001463020fff7efff08bd08b50a4601466f
:1021dc000420fff7e8ff08bd08b50a460146312088
:1021ec00fff7e1ff08bd10b514461038c0b2022845
:1021fc0034bf6ff05f006ff07f0008431a46214632
:10220c00c0b2fff7d0ff10bd08b540f0a000fff73b
:10221c00caff08bd2de9f04786b0064688461c4625
:10222c00002305931146b2b1012a03d0022a0bd028
:10223c00002711e0b0f5027f45d0a0f50373022b07
:10224c008cbf0227002707e040f2852086420cbf96
:10225c000227002700e0022705aa3046fef7fefb06
:10226c008146002858d003a90598fff76dff054655
:10227c0005982044384401a92844fff79fff0446e1
:10228c0040f203239e4220d0b8f1000f14d0224616
:10229c0001a940463af0adfe2a4603a908eb04001a
:1022ac003af0a7fe2e19ddf814a05246494608eb69
:1022bc0006003af09efe37bb05983844204428446b
:1022cc0006b0bde8f0870027c6e7b8f1000f0cd0c8
:1022dc002a4603a940463af08cfe059e32464946f2
:1022ec0008eb05003af085fe1fb9059838442844e0
:1022fc00e6e73019284408eb0003052208f8002013
:10230c0000225a70f1e7564408eb0603052208f840
:10231c00062000225a70cfe70020d1e72de9f04fbc
:10232c0089b006460f4690461d46129c0b69b3b108
:10233c001b68b4b10133079346b3984514d33dbb26
:10234c00234607aa7119384606f012f8814610b9cf
:10235c00079805eb0009484609b0bde8f08f422309
:10236c00e7e75b000133e6e76ff08309f3e76ff013
:10237c008309f0e707984844504400215844fff77c
:10238c001dff504481440beb0905e1e7002ddfd024
:10239c00002211463846fff7e2feb0f10009dadd03
:1023ac004b460222694640f20620fff733ff824675
:1023bc0005aa00210798fff7b3fe83464d46079800
:1023cc004844504400215844fff7f8fe002ed1d069
:1023dc00079a09eb0a035b44034413444345c6d8ec
:1023ec00a818504431465844fff7e8fe8046524640
:1023fc00694630183af0fdfdc2444a4606eb0a0124
:10240c003846fff7acfe09eb0a055a4605a97019c8
:10241c003af0effd5d4493e72de9f0419ab00746a1
:10242c0015461c4604238df81c308df81d200df12b
:10243c001e003af0defd023500231a4602a92046a2
:10244c00fff7e8fe044600eb050869464046fff737
:10245c00b5fe06460246694638463af0cafd2246a3
:10246c0002a9b8193af0c5fda0192a4607a93844a3
:10247c003af0bffd08eb06001ab0bde8f08108b5d4
:10248c0032f078fe32f07cfe20eae07008bd58b1e4
:10249c0070b5044616460d462822002104303af049
:1024ac00e5fda661256070bd704710b3f8b5044614
:1024bc001d4616460f464ff4587200213af0d6fdd1
:1024cc000c2384f86c30002384f86d3084f86d3163
:1024dc00c4f87472c4f87c62c4f880527f2384f808
:1024ec00f5326ff00102294604f54a70fff7cfff71
:1024fc00f8bd704708b5fff7d8ff08bd58b310b545
:10250c000446406818b138f0d5fe00236360e068db
:10251c0018b138f0cffe0023e360606980b1a36a84
:10252c0040f2062293420ed040f28522934205d10e
:10253c001ff067f9606908b138f0bcfe00236361d5
:10254c000023e36110bd04f0b5fa60690028f5d0f2
:10255c0038f0b0fef2e7704700283bd010b50446c7
:10256c0090f85c3313f0010f03d0406e08b138f0d3
:10257c00a1fea368012b27d094f85c3313f0400f15
:10258c0005d0606a18b1d4f88012fff7adf8a06ad4
:10259c0018b1d4f88012fff7a7f8e06a18b1d4f894
:1025ac008012fff7a1f8206b18b1d4f88012fff756
:1025bc00b9f8606b18b1d4f88012fff7b3f804f5d2
:1025cc004a70fff79bff10bd20680028d4d038f06c
:1025dc0071fed1e7704708b5fff7beff08bd704725
:1025ec00704710b5502037f08ffa044618b15022be
:1025fc0000213af03bfd204610bd38b504460d468f
:10260c00806908b138f056fe206908b138f052fee6
:10261c00e06910b12946fff785f8206a10b1294608
:10262c00fff780f8204638f045fe38bd2de9f84319
:10263c00b1f1000817dd1546061f06eb88084ff0b0
:10264c00000903e0c7f8009046450cd00436374625
:10265c0030680028f6d0c46c2946fff7ceff204620
:10266c00002cf8d1eee7bde8f8830b4671b122b12e
:10267c00a0220a7003224a700222022199541344a8
:10268c000121597003329870104670476ff0ac02fc
:10269c00fae72de9f04f87b0129f002405940494bb
:1026ac00002855d00446002a00f0c080002900f014
:1026bc00ae801d4600920e46119b002b5ad007f19e
:1026cc002d032b440a689a42c0f0a48004ab2a461e
:1026dc0005a90098fef7abfd002880f2a480052325
:1026ec00059304eb030a002251461046fff7bdff89
:1026fc008346059b03440593002f60d13b46022281
:10270c00059921441098fff785fd8344059b0344ec
:10271c000593059921442846fff757fd059b034473
:10272c00059383442a460099e0183af062fc5d4414
:10273c0021462846fff742fd83462a46514620187b
:10274c003af09cf905eb0b00306007b0bde8f08f58
:10275c006ff0ac000029f8d02833119a32b107f190
:10276c00050843440b606ff0c900eee70b606ff097
:10277c00c900eae705f128030a689a424dd304ab75
:10278c002a4605a90098fef752fd002848da0523d1
:10279c00059304eb030a002251461046fff765ff30
:1027ac008346059901440591002302222144109887
:1027bc00fff730fd8344059b03440593a9e703a968
:1027cc003846fff713fc7b1c034402220599214475
:1027dc001098fff71ffd814607eb0b03019305993a
:1027ec000144059121443846fff7aefc8046059b19
:1027fc0000eb030b3a46119904eb0b003af0f9fb92
:10280c005f440597019b09eb030bc34481e76ff011
:10281c00ac009ae76ff0830097e76ff0830094e7c2
:10282c006ff08b0091e76ff08b008ee76ff0ac00d0
:10283c008be72de9f04f91b040f20114049400287d
:10284c0000f0ee800546a9b1019302920c461a9b4a
:10285c00abb1a0238df8283014220df12a012846a3
:10286c00fff77dfc061ec0f2b2808df8296006f1e0
:10287c00020906e0002ae7d16ff0ac06a7e04ff0a2
:10288c0000092b691e680596f01d37f03df980464e
:10289c00002800f0c8807f2e1dd8042303704670da
:1028ac004ff0020a05aa08eb0a01284605f0b8ff0a
:1028bc00061e16db059f019b002b50d004aa00219d
:1028cc00284605f0c4fc064610f1ca0f0dd0404650
:1028dc0038f0f0fc7be001463046fff776fc824690
:1028ec00e0e7404638f0e6fc71e0049e06f1090092
:1028fc0037f00af90390e8b1a123039a1370802ee4
:10290c001ed9511c301dfff771fb00f1010b039e0a
:10291c0006eb0b0200210498fff702fc834404aa87
:10292c0006eb0b01284605f092fc064680b9049b89
:10293c009b4418e0404638f0bdfc6ff07c0646e046
:10294c00039b591cf01cfff751fb00f1010bdee758
:10295c00404638f0affc039838f0acfc37e04ff051
:10296c00000bcdf80cb05744002208a90120fff74a
:10297c007cfe054609eb07065e4406a93044fff7ca
:10298c001dfc8246064473191e4624b3029a12b1ea
:10299c0012689a422ddb524606a920463af029fbd2
:1029ac002a4608a904eb0a003af023fb55443a46a0
:1029bc00414660193af01dfb2f44404638f07afc32
:1029cc004a460aa9e0193af014fb019bebb93046d0
:1029dc0011b0bde8f08f029a1360404638f06afce3
:1029ec00019b1bb3039820b338f064fc6ff0c9064d
:1029fc00ede7404638f05efc019bebb10398f0b17b
:102a0c0038f058fc6ff0ac06e1e74f445a46039d92
:102a1c002946e0193af0edfa284638f04bfcd6e797
:102a2c006ff0ac06d3e76ff07c06d0e76ff0c90609
:102a3c00cde76ff0c906cae76ff0ac06c7e76ff0d9
:102a4c00ac06c4e72de9f04389b000240794069442
:102a5c00059440f20114049400286dd005460069d9
:102a6c0000286cd0002a6dd01f461646894607aa4e
:102a7c0005a9c06a06f07ef8041e41db40f2011085
:102a8c0037f042f8804600285fd040f20112002156
:102a9c003af0ecfa002300933b4604aa4146284640
:102aac00fff7c7fe041e2fdb2546079b0293059bf1
:102abc00019340f2062300932346424606a90020c8
:102acc00fff7e7fd044610f1ca0f21d1b9f1000f51
:102adc0022d03268069b9a4224d3079b0293059b13
:102aec00019340f2062300932b46424606a9484622
:102afc00fff7cffd041e1bdb404638f0dbfb3460d8
:102b0c00204609b0bde8f083404638f0d3fbf7e728
:102b1c00404638f0cffbf3e7404638f0cbfb069b42
:102b2c003360ede7404638f0c5fb6ff08304e7e710
:102b3c00404638f0bffbe3e76ff0ac04e0e76ff022
:102b4c00ac04dde76ff0ac04dae76ff07c04d7e798
:102b5c002de9f8431746089ab0b31e460b460446b7
:102b6c00afb3002936db0add017849b9411c0c46ac
:102b7c00013b32d001312578002df8d000e079b33b
:102b8c00217811f0800f18bf02f1ff329a42a8bfd2
:102b9c001a46914600224846fff75bfa8046351ae2
:102bac004d45a8bf4d46002d1ddd3a4621782846df
:102bbc00fff74ffa2a46214607eb08003af019fabc
:102bcc0008eb0500bde8f8836ff0ac00fae76ff096
:102bdc00ac00f7e76ff0ac00f4e76ff0ac00f1e796
:102bec006ff0ac00eee76ff08300ebe72de9f041fe
:102bfc00069efab1904600b313b30d680135b54289
:102c0c0021d81f460c46054633463a46fdf78cfd47
:102c1c00064660b93a68531e1f2b17d82168294401
:102c2c0040463af0e6f923683a681344236030468c
:102c3c00bde8f0816ff0ac06f9e76ff0ac06f6e793
:102c4c006ff0ac06f3e76ff08306f0e76ff08b06de
:102c5c00ede7002800f09a802de9f04387b0044698
:102c6c00002a00f09680164688460023136000f573
:102c7c001e77d0f87c3204aa3946d0f87402fdf7de
:102c8c00befd00287fdbd4f87822049b1344c4f8e3
:102c9c007c32e26004aa3946d4f87402fdf7affd29
:102cac00002870dbd4f87832049d1d442561d4f8db
:102cbc007c22954267d8d4f8749205932b460df17b
:102ccc000f0205a94846fdf7e6fc00285bd19df8ec
:102cdc000f30a02b46d0002323622369009304f508
:102cec00297304f521723946d4f87402fff77eff7c
:102cfc00002848db23690093012304f118023946ac
:102d0c00d4f87402fef750fa002828db226900215f
:102d1c002046fef71cfd002821db236905aa394655
:102d2c00d4f87402fdf76bfd002835dbd4f878522b
:102d3c00059b1d442b46424600212046fff7d3f845
:102d4c0000282fdb2b46424601212046fff7cbf80b
:102d5c00002824db226901212046fef7f8fc07b08d
:102d6c00bde8f083059b01330593c4f878322b46fc
:102d7c0004f1200239464846fdf7bafd002802db73
:102d8c00236a032ba9d96ff08b00e8e76ff0ac0036
:102d9c0070476ff0ac00e2e76ff08b030ee06ff062
:102dac0096030be02b46424601212046fff79bf889
:102dbc000028b4bf6ff096036ff095033360c9e73a
:102dcc002de9f04389b004460023079307aafff7c7
:102ddc0040ff051ec0f2b180142204f1380104f149
:102dec004c003af05ff8b0fa80f0400994f85e338a
:102dfc0060f3410384f85e33d4f87472d4f87882ab
:102e0c00cdf80c80d4f87c3204aa03a93846fdf71f
:102e1c00f6fc0028c0f29580039e049b1e4400968d
:102e2c00022304f11c0203a93846fef7bdf9002861
:102e3c00c0f28780e36940f20622934228d040f228
:102e4c008522934272d100230193012300933346d0
:102e5c0006aa03a93846fdf7a2fd054690b9039ec4
:102e6c00069b334405aa03a93846fdf7c8fc002885
:102e7c000bdb069b636037442760039b059a134466
:102e8c00039355e06ff08b0552e06ff08b054fe02c
:102e9c0007eb0809039b059333460df10b0205a9bb
:102eac003846fdf7f8fb002834db9df80b30302b4f
:102ebc001fd00096032304f53f7203a93846fef792
:102ecc002ef9002829dbd4f8fc02fdf731fa002892
:102edc0026db0023019301230093334606aa03a9a2
:102eec003846fdf75cfd054610bb039b069a134460
:102efc000393a6eb0806304636f006fe054690b165
:102f0c00324649463af075f825600123a3606660a5
:102f1c0000250de06ff08b050ae06ff08b0507e0e4
:102f2c006ff0ab0504e06ff07c0501e06ff09305ea
:102f3c00039bc4f8783205b9079d284609b0bde853
:102f4c00f0836ff08b05f8e700283bd02de9f047b4
:102f5c0007460b2a16d8dfe802f0061515150918d6
:102f6c001515150c0f124ff0020910e04ff0160951
:102f7c000de04ff015090ae04ff0250907e04ff07e
:102f8c000a0904e04ff0030901e04ff001099846eb
:102f9c0015460e4601f1140a504636f0b5fd0446ae
:102fac00386090b1524600213af060f8e560c4f800
:102fbc001090c4f8048004f114032360a660002070
:102fcc00bde8f0876ff0ac0070476ff07c00f7e75e
:102fdc00d8b102460068c0b138b5c368012b05d022
:102fec00144638f067f90023236038bd01680029c6
:102ffc00f6d08468002cf3d00c4400250b4603f863
:10300c00015b1946a342f9d1eae7704708b5fff70f
:10301c009bff08bd08b5fff7dbff08bd152847d897
:10302c00dfe800f00b264646140b1d4646461d26cf
:10303c002e462e0b46464646363e09b1254b0b60b6
:10304c00002a38d0244b13600020704709b1234b61
:10305c000b60002a31d0224b13600020704709b15d
:10306c00204b0b60002a2ad01f4b136000207047a6
:10307c0009b11e4b0b6022b31d4b1360002070472f
:10308c0009b11c4b0b60f2b11b4b13600020704755
:10309c0009b11a4b0b60c2b1194b13600020704779
:1030ac0009b1184b0b6092b1174b1360002070479d
:1030bc006ff0ac0070470020704700207047002074
:1030cc007047002070470020704700207047002098
:1030dc00704700bf3c4a0300584a0300744a03007f
:1030ec00904a0300a84a0300c84a0300e84a0300b8
:1030fc00084b0300284b0300444b0300604b0300b8
:10310c007c4b0300984b0300c04b03002de9f04fa0
:10311c0087b007468a46164600930023059304930e
:10312c00039304aa05a93046fff778ff0190002805
:10313c0040f0e480d3467d4d05f57f7805f59f6919
:10314c0038e0059b05f56f72934212d005f23442bc
:10315c00934215d005f26c42934218d005f55f727c
:10316c0093421bd0cdf8148005f5836304930c2691
:10317c0020e005f23443059305f58a63049319e0c6
:10318c0005f26c43059305f29443049312e005f5a4
:10319c005f73059305f5677304930be005f597636f
:1031ac00059305f59b63049304e0cdf8149005f5a5
:1031bc00a36304935a460599384636f0d4f804466e
:1031cc0050b9012ebdd00c2e40f09d80059b43457f
:1031dc00ebd06ff0a10592e007eb0a05ddf8148047
:1031ec00404639f04bff0444a5420cd923462946ee
:1031fc0002e01c468b4206d01c4613f8012b0d2a0c
:10320c00f7d00a2af5d0129b1bb1012e11d00c2e2f
:10321c001fd02a1b0499204636f0a5f8804600b32f
:10322c00049839f02bff4044854231d90346294696
:10323c0022e03f4b984507d03e4b9845e9d140f2f0
:10324c000623129a1360e4e740f28523129a136066
:10325c00f2e7394b9845dcd140f28523129a136082
:10326c00d7e7119b002b51d0c3f808a06ff0830552
:10327c0045e018468b420bd0184613f8012b0d2a4b
:10328c00f7d00a2af5d0854202d9037803b9013068
:10329c00119b0bb1c01b9860a8eb0408c24538db2e
:1032ac00b8f1000f38dd109b32464146009e304687
:1032bc00fff74afe051e22db3668334653f8082b0f
:1032cc004146204633f004ff002828db059b1b4aaf
:1032dc00934202d0b83a934211d10023029303ab2c
:1032ec00b26802a93068fdf7a2ff00281add129b14
:1032fc00d3b1039b129a1360019d00e0019d2846f7
:10330c0007b0bde8f08f6ff0a105f8e76ff083050b
:10331c00f5e76ff08305f2e76ff08305efe76ff0e9
:10332c008305ece7019deae7019de8e72c470300e4
:10333c00e84a0300a84a0300244c0300604b030036
:10334c0070b584b015461e460a9c0294099c0194e3
:10335c00089c0094fff7dafe044608b9012d02d050
:10336c00204604b070bd3568a9682868fef77ef861
:10337c000028c8bfa860f3e7f0b5a9b000242794d3
:10338c00002830d00746002a30d0a34231dd1e463b
:10339c0015460c468422002106a839f067fe164b10
:1033ac0004932e9b05930023029304aa019200938d
:1033bc0027ab012221463846fff7a8fe041e06db88
:1033cc00279f27b1ba68b24207d96ff0ac0427a87f
:1033dc00fff7fefd204629b0f0bd3968284639f0cc
:1033ec0008febc68f3e76ff0ac04f3e76ff0ac04d5
:1033fc00f0e76ff0ac04ede7e1040000f0b587b046
:10340c000c9d0024059458b3044662b3002b2dddab
:10341c0035f0080004d0052d02d06ff0ac0416e096
:10342c0020461f461646002402940194009405abd6
:10343c002a46fff76bfe041e06db059d25b1aa6824
:10344c00ba4207d96ff0ac0405a8fff7c1fd2046be
:10345c0007b0f0bd2968304639f0cbfdac68f3e716
:10346c006ff0ac04f3e76ff0ac04f0e76ff0ac0472
:10347c00ede7a0b1f8b50446a2b1f9b11068a0b15e
:10348c002768c7b16668b04212d315460846324663
:10349c00394639f0aefd63682b600020f8bd6ff043
:1034ac00ac0070476ff0ac00f8e76ff0ac00f5e7dc
:1034bc006ff0ac00f2e76ff0ac00efe701686ff073
:1034cc00ac000029ead0636813606ff0c900e5e72f
:1034dc0010b582b00c460021009101462046fef743
:1034ec001dff02b010bd10b582b00c4604990091be
:1034fc0001462046fef712ff02b010bd10b582b097
:10350c00002400940b46224601462046fef706ff97
:10351c0002b010bd2de9f04780460e4615461f46f9
:10352c00104608f00dfa0446384608f009fa8146b0
:10353c00284606f066fb8246384606f062fb544489
:10354c00044404eb0903181d063332689a421bd35a
:10355c004146fef733fe0446316808eb0002091ab7
:10356c002846fef798fd00280cdb0444316808eb74
:10357c000402091b3846fef78efd002802db0444ca
:10358c0034600020bde8f0876ff08300fae72de986
:10359c00f04782b0019200285ed0054600295ed02b
:1035ac00002a5fd00a9a002a5fd00e46194601a85d
:1035bc00fcf79dfe04460b990aa8fcf798fe804682
:1035cc00002c44d0019b1f787fb2fa0fb8f1000f8a
:1035dc003fd00a9b93f800904ffa89f904eb08034b
:1035ec00134403ebd973181d063332689a423fd348
:1035fc002946fef7e3fd8246002f05eb0002b4bf1f
:10360c00802100212046fef724fd00281cdb82448b
:10361c002246019905eb0a0039f0ebfc5444b9f150
:10362c00000f05eb0402b4bf802100214046fef7d9
:10363c0010fd002808db044442460a99281939f089
:10364c00d8fc44443460002002b0bde8f087002769
:10365c00bae74ff00009bfe76ff0ac00f4e76ff08a
:10366c00ac00f1e76ff0ac00eee76ff0ac00ebe70d
:10367c006ff08300e8e72de9f04182b006460c4676
:10368c0090461f460023019300930b466a4601a9fe
:10369c00fdf7b5f800283cdb019b009a1344a342cc
:1036ac003ad123466a4601a93046fdf73df8054656
:1036bc0058bb0fb1009b3b60b8f1000f05d0009ace
:1036cc0001993144404639f094fc019b009a134413
:1036dc00019323466a4601a93046fdf725f80546b5
:1036ec0098b9099b13b1009b099a1360089b2bb1e5
:1036fc00009a01993144184639f07bfc019b009ae1
:10370c001344a34218bf6ff0aa05284602b0bde8c7
:10371c00f0816ff0aa05f8e76ff0aa05f5e7f0b5b0
:10372c0083b005460c4616461f46002301930093b2
:10373c000b466a4601a9fdf762f800282adb019bbb
:10374c00009a1344a34228d1234601aa29463046a5
:10375c00fdf720f8002823db234601aa294638462a
:10376c00fdf718f8002806db019ba34208bf0020d8
:10377c0007d103b0f0bd304606f002fa6ff0aa0094
:10378c00f7e7304606f0fcf9384606f0f9f96ff029
:10379c00aa00eee76ff0aa00ebe76ff0aa00e8e7eb
:1037ac006ff0aa00e5e72de9f047bab000240394c6
:1037bc00002800f0a4800646002900f0a380002a0f
:1037cc0000f0a380002b00f0a3801d4690460c4611
:1037dc0003ab2a46fdf72bfd2b4637aa2146304674
:1037ec00fdf70df80028c0f296802b4638aa21462a
:1037fc003046fdf77df80028c0f290802368ab427c
:10380c0080f08f80f25c01332360042a09d0063ae1
:10381c00d2b2012a05d96ff08b0738463ab0bde811
:10382c00f0872b4637aa21463046fcf7e5fe0028e8
:10383c007adbddf8dc90b9f1420f78dc27684a4678
:10384c00f11926a839f0d5fb07eb090323605a1ca4
:10385c00aa426fd2f15ca02908d04ff0000af35ca9
:10386c002260a12b24d06ff0aa07d6e722602b464a
:10387c0037aa21463046fcf7bffe002802dc6ff069
:10388c008b07cae70095152339aa21463046fdf768
:10389c0046fc07460028c0d13998fcf749fdb0f129
:1038ac00000a56db23685a1caa42d8d3002245e0f2
:1038bc002b4637aa21463046fcf79efe002802dc38
:1038cc006ff08b07a9e70023019300932b4637aacf
:1038dc0021463046fdf763f8074600289dd1379ff7
:1038ec00862f02dd6ff0830797e725683a4671193a
:1038fc0004a839f07efb3d44256004aa1ee06ff05d
:10390c00ac078ae76ff0ac0787e76ff0ac0784e78a
:10391c006ff0ac0781e76ff08b077ee76ff08b07da
:10392c007be76ff08b0778e76ff08b0775e76ff02d
:10393c00830772e74ff0000a52465746cdf804a0b1
:10394c00cdf800803b46494626a804f0acff07465c
:10395c0063e76ff0ab0760e72de9f041adf50d5d66
:10396c0086b00df50d5430342688002800f0b48054
:10397c000546002a00f0b380984614460f4640f2e4
:10398c0085239e420ad040f206239e424dd000264b
:10399c0030460df50d5d06b0bde8f08100210391b8
:1039ac0004a81df0d5fe061ef2db00210df58d508e
:1039bc0014301df0cdfe061e10db3b4604aa03a9f5
:1039cc002846fdf795fc064660b10df58d50143078
:1039dc001df017ff04a81df014ffd9e704a81df073
:1039ec0010ffd5e70023039343460df58d52143297
:1039fc0003a92046fdf754fe06460028e5d10df537
:103a0c008d51143104a806f0f4f810b16ff077065c
:103a1c00dbe70df59e511c318ea806f0eaf8002864
:103a2c000cbf01266ff07706cfe7422302930023e9
:103a3c0003930df58d50143002f0deff061ea7db4c
:103a4c003b460df58d52143203a92846fff7abfe09
:103a5c00064628b10df58d50143003f02bf897e77e
:103a6c0006ab02aaa3f108010df58d50143004f039
:103a7c00d7fe06460028edd10df58d50143003f01d
:103a8c0019f80df58d50143002f0b6ff064668b1ea
:103a9c0002990029ded004ab19441a4600201346c3
:103aac0003f8010b1a469942f9d1d3e70df58d5362
:103abc001433009343462246029904a804f02bffca
:103acc0006460028e4d10df58d50143004f0c8fde5
:103adc00061e08bf0126dbe76ff0ac0658e76ff057
:103aec00ac0655e758b16ab100b583b0938b00931f
:103afc0053681268fff730ff03b05df804fb6ff0fa
:103b0c00ac0070476ff0ac007047002800f0bd802f
:103b1c002de9f04389b00646002900f0ba80002a4e
:103b2c0000f0ba80002b00f0ba801d4617460c46f8
:103b3c0006aafcf764fe0028c0f2b4802b4607aa44
:103b4c0021463046fcf7d4fe002855db2268aa42f9
:103b5c0080f0ab80b35c8df80f3001322260042b07
:103b6c0006d0063bdbb2012b02d96ff08b033fe092
:103b7c002b4606aa21463046fcf73efd0028c0f233
:103b8c009780069b422b00f3968022681344236097
:103b9c00ab4280f09380f25c8df80f2001332360f0
:103bac00a02a40f08e802b4606aa21463046fcf710
:103bbc0023fd002840f388804ff001092368ab42b5
:103bcc0080f0888004932b460df10f0204a9304637
:103bdc00fcf761fd18b99df80f30302b7dd00095a6
:103bec00152305aa21463046fdf799fa0346b0b1d4
:103bfc00184609b0bde8f0832b4606aa214630468c
:103c0c00fcf7fdfd002862db2a4621463046fdf715
:103c1c0073fa03460028ebd14ff00009cee7059864
:103c2c00fcf786fbb0f100085adbb9f1000f11d09c
:103c3c002368ab4257d2f25c8df80f20013323601e
:103c4c00a12a53d12b4606aa21463046fcf7d4fcb8
:103c5c0000284edd00230193012300932b4606aa76
:103c6c0021463046fcf79bfe03460028c0d1206855
:103c7c0043463a460699304404f0f8fc0346d8bb58
:103c8c00226806990a442260b2e76ff0ac0318462a
:103c9c0070476ff0ac03abe76ff0ac03a8e76ff0c5
:103cac00ac03a5e76ff08b03a2e76ff08b039fe7e4
:103cbc006ff08b039ce76ff0830399e76ff08b0336
:103ccc0096e76ff0aa0393e76ff08b0390e76ff022
:103cdc008b038de76ff083038ae76ff08b0387e725
:103cec006ff0ab0384e76ff08b0381e76ff0aa03ef
:103cfc007ee76ff08b037be76ff0aa0378e72de983
:103d0c00f045adf5037d8b9e8e9d002800f09081d3
:103d1c000446002900f08f81002a00f08f81002bcf
:103d2c0000f08f818a98002800f08e818c980028f2
:103d3c0000f08d818d98002800f08c819846924679
:103d4c000f46e369042b00f26181dfe813f00500f4
:103d5c009b0030001e013501a662202035f0d4fef8
:103d6c0002466060002800f053810123e361b5f541
:103d7c00037f6dd047d940f289239d4200f0b38078
:103d8c0074d8b5f5227f18bf6ff0e70540f0458178
:103d9c005146384631f06ffb0546002840f03d8116
:103dac0040f289232362102363620223e36140f211
:103dbc0006239e4200f0be8040f285239e4240f0d6
:103dcc002a810023029341f2a41035f09dfe054692
:103ddc0060618d9835f098fee060002d00f0a480b5
:103dec00002800f0a480a269216828461df06afc16
:103dfc000546002840f011818d9bb3f5007f7fd9db
:103e0c006ff0830509e140f205239d426bd018d970
:103e1c00b5f5027f67d040f20b239d4218bf6ff0bf
:103e2c00e70540f0fa805146384631f06dfb054607
:103e3c00002840f0f28040f2a11323621c2363623d
:103e4c00b3e7b5f5d07f18bf6ff0e70540f0e5801c
:103e5c005146384631f076fb0546002840f0dd80af
:103e6c004ff4cf732362202363629ee740f28f23cb
:103e7c009d42edd040f292239d4218bf6ff0e705b2
:103e8c00d1d0cae06268b5f5037fe1d00bd940f21e
:103e9c0089239d4227d01bd8b5f5227f3ff478affc
:103eac006ff0e705b9e040f205239d421bd009d91c
:103ebc00b5f5027f17d040f20b239d42b3d06ff0c3
:103ecc00e705aae0b5f5d07fc2d06ff0e705a4e016
:103edc0040f28f239d42bbd040f292239d42a2d050
:103eec006ff0e70599e05146384631f0e2fa0546a5
:103efc00002840f09280582323621423636254e715
:103f0c008a9b626902a94046fdf7cafb0546002858
:103f1c0040f083808d9a8c99e06839f06af8002320
:103f2c00a3600323e36138e06ff07c0575e06ff06c
:103f3c007c0572e000230293236140f6041035f0f7
:103f4c00e3fd6061f0b1a269216802f019fd051e64
:103f5c0063db8a9b626902a94046fff7d6fd051e0a
:103f6c005bdb002d59d10323e3616369019304f1f9
:103f7c0010030093636a62688d998c9803f0f4ffc8
:103f8c00054614e06ff07c0547e040f206239e42a4
:103f9c00ebd040f285239e4208d1636904f10802fc
:103fac008d99e0681ef08ef8054600e00025002d86
:103fbc003bdb0423e36100e0002540f206239e4234
:103fcc001dd040f285239e4227d1236a626a616824
:103fdc0002a8fef721fa854202d06ff09a051ce088
:103fec00a3684bb1024602a9184638f05bff051ec8
:103ffc0018bf6ff09a0510e06ff09a050de0236979
:10400c00012b0cbf00256ff09a0506e0002504e09b
:10401c006ff07c0501e06ff093052046fef76efa19
:10402c0028460df5037dbde8f0856ff09a05f4e7a1
:10403c006ff0ac05f4e76ff0ac05f1e76ff0ac0591
:10404c00eee76ff0ac05ebe76ff0ac05e8e76ff06f
:10405c00ac05e5e76ff0ac05e2e72de9f04fa1b058
:10406c0000241f94002801f02f8081460d930892a4
:10407c000c91d0f844330b9353b34ff0000b089bc7
:10408c00c3b10c9a052a00f0f9870f2a00f0f687c5
:10409c00d9f82403002801f0238023f00204012c1a
:1040ac0000f07087052b00f06d87089b043b012bfb
:1040bc0041f2cf80d9f85433002b41f01580d9f858
:1040cc005833002b18bf9b46584621b0bde8f08fe3
:1040dc00c0f85443c0f858431146fef771feb0f1d6
:1040ec00000b4adbd9f87832d9f81020934281f0d2
:1040fc00d280d9f82010012940f3ea87d9f874123c
:10410c00194409910846c9f8a812d21a0792154603
:10411c00c9f8ac22c9f8b032002312938df847309d
:10412c000c46002901f0098013460df1470212a933
:10413c00fcf7b1fa0028c1f204809df84730a32b9c
:10414c0041f003802b4613aa12a92046fcf754fa1f
:10415c000028c0f2fe872b4613aa12a92046fcf7b2
:10416c004efb0028c0f2f987129b079a9a4241f243
:10417c008e8000230f9300f040be0bf19703012bb0
:10418c00a2d8c9f854b3ade7079a12a90998fcf75d
:10419c0091f8031e0693c1f27080ddb200f05bbe95
:1041ac00002500f058be812b00f08b840ed9852b96
:1041bc0065d0902b00f00e85832b00f0e281002d52
:1041cc0000f0148601230f9300f010be452b00f075
:1041dc007681802bf3d199f85c3313f0020f40f009
:1041ec00d48743f0020389f85c3399f85f3365f3a5
:1041fc00410389f85f33002de4d100231a931b93fc
:10420c009c4200f33a846ff08b0b5de7922b00f02d
:10421c00e485952bd3d199f85c3313f0040f40f05f
:10422c00b08743f0040389f85c3399f85e3365f387
:10423c00c71389f85e33002dc4d100231a931b9346
:10424c0023461baa1aa95046fcf7d9fa0028c0f23b
:10425c00f087234619aa1aa95046fcf71cfa002825
:10426c00c0f2e7879df86430802b00f0e18399f869
:10427c005c336ff3820389f85c3300f0b7bd99f8b7
:10428c005d3313f0080f40f06c8743f0080389f896
:10429c005d3399f85e3365f3041389f85e330023bc
:1042ac0019931a9323461aaa19a95046fcf7a7fa90
:1042bc000028c0f28a871a9b002b00f097852246b3
:1042cc0019a95046fbf7f6ff20eae07099f85c3329
:1042dc0060f3041389f85c33199b9c4240f2868589
:1042ec001b9303339c42c0f07087234618aa1ba96a
:1042fc005046fcf7d0f9002840f067879df86030f5
:10430c00022b40f062871b9a531c1b931af8022055
:10431c00012a40f05a871af8033089f8f43299f8d8
:10432c005c3343f0200389f85c3300f05fbd99f8ef
:10433c005d3313f0020f40f0188743f0020389f845
:10434c005d3399f85e3365f3820389f85e3300239d
:10435c0019931b938df86030c9f8bca2c9f8c04200
:10436c0023461baa19a95046fcf749fa002843db3f
:10437c0023461baa19a95046fcf741fa00283bdb3f
:10438c00199b1a93234618aa1aa95046fcf783f9cd
:10439c0018b99df86030a02b31d0199b1a939c4210
:1043ac0040f22485234618aa1aa95046fcf773f943
:1043bc0018b99df86030a12b71d0199b1a939c42af
:1043cc0040f21485234618aa1aa95046fcf763f943
:1043dc00002840f00b859df86030a22b40f006853c
:1043ec00199b0133199323461baa19a95046fcf7b4
:1043fc0003f9002880f2fa846ff08b0b64e6199baa
:10440c000133199323461baa19a95046fcf7f4f85b
:10441c000028f1db199b1a93234618aa1aa95046b7
:10442c00fcf739f918b99df86030a02b04d0199b12
:10443c001b9a13441993b0e7199b01331993234624
:10444c001baa19a95046fcf7d7f80028d4db199bf6
:10445c001a93234618aa1aa95046fcf71cf918b946
:10446c009df86030862b04d0199b1b9a134419932a
:10447c0093e7199b0133199323461baa19a950469c
:10448c00fcf7baf80028b7db1b9bc9f8c832199a9d
:10449c000aeb0201c9f8c412134419937de7199b66
:1044ac000133199323461baa19a95046fcf7a4f80b
:1044bc000028a1db199b1b9a134419937de799f8eb
:1044cc005d3313f0040f40f0548643f0040389f875
:1044dc005d3399f85e3365f3c30389f85e330023cb
:1044ec0019931a938df86030254623461aaa19a9f8
:1044fc005046fcf784f90028c0f25f86199b9c4259
:10450c0040f27484002406e0199b1a9a1344199300
:10451c009d4240f26b842b461aaa19a95046fcf70f
:10452c006ef90028c0f249861b94009507231baa3c
:10453c0019a95046fcf7f3fd0028c0f23e862b4625
:10454c0018aa19a95046fcf7a6f80028c0f235861f
:10455c002b461aaa19a95046fcf74ef80028c0f2af
:10456c002c869df86030862bced11b9b742bcbd127
:10457c001a9bc9f8b832199b5344c9f8b43200f0ed
:10458c0035bc99f95d33002bc0f2f78599f85d3392
:10459c0043f0800389f85d3399f85e3365f3861335
:1045ac0089f85e330023179318932646234618aade
:1045bc0017a95046fcf723f90028c0f23182189b4a
:1045cc00002b00f0318299f85c3343f0400389f8fa
:1045dc005c33fde133461baa17a95046fcf70cf8d7
:1045ec00002830db179bed1a189b2b441893d9f835
:1045fc008002fdf78af8054648b3022343601b98f6
:10460c00013035f081fae860b0b11b9faf603a46db
:10461c001799514438f0edfceb680022da55d9f8c3
:10462c0024302b60c9f824501b99189a521a1892ee
:10463c00179b0b441793cbe1284636f03bfe6ff0eb
:10464c007c030693cbe36ff08b030693c7e36ff009
:10465c007c030693c3e333461baa17a95046fbf70a
:10466c00cbff002839db33461baa17a95046fcf7b1
:10467c00c6f8002835db179bed1a189b2b441893b2
:10468c00d9f88002fdf741f8054600282dd0042307
:10469c0043601b98013035f037fae860b0b11b9fce
:1046ac00af603a461799514438f0a3fceb680022ee
:1046bc00da55d9f82c302b60c9f82c501b99189a64
:1046cc00521a1892179b0b44179381e1284636f027
:1046dc00f1fd6ff07c03069381e36ff08b0306937f
:1046ec007de36ff08b03069379e36ff07c03069305
:1046fc0075e333461baa17a95046fbf77dff00282c
:10470c0030db179bed1a189b2b441893d9f88002b9
:10471c00fcf7fbff054648b3012343601b98184484
:10472c0035f0f2f9e860b0b11b9faf603a461799cb
:10473c00514438f05efceb680022da55d9f8283089
:10474c002b60c9f828501b99189a521a1892179b6b
:10475c000b4417933ce1284636f0acfd6ff07c031c
:10476c0006933ce36ff08b03069338e36ff07c0306
:10477c00069334e333461baa17a95046fbf73cffbc
:10478c00002865db179fed1b189b2b441893ddf855
:10479c006cc007eb0c039c425edbbcf1000f19dd17
:1047ac001af807303a2b4ad02f2b59d07b1c534484
:1047bc000ceb070050440aeb0705591b83420ad047
:1047cc0013f8012b3a2a06d02f2af6d16ff0a0034a
:1047dc00069304e30b99acf1020c8c4544dd39448f
:1047ec000aeb01035b782f2b42d151448b782f2b92
:1047fc0042d1d9f88002fcf788ff054600283fd04b
:10480c00062343601b98013035f07ef9e860c0b197
:10481c001b9faf603a461799514438f0eafbeb689e
:10482c000022da55d9f824302b60c9f824501b9992
:10483c00189a521a1892179b0b441793c8e00b99ad
:10484c00c9e7284636f036fd6ff07c030693c6e2c6
:10485c006ff08b030693c2e26ff083030693bee204
:10486c006ff0a0030693bae26ff0a0030693b6e2d2
:10487c006ff0a0030693b2e26ff0a0030693aee2d2
:10488c006ff07c030693aae200231a93334619aa0d
:10489c0017a95046fbf7b0fe0028c0f28d80179b7d
:1048ac00eb1a189a1344199a9b1a18930096092319
:1048bc001aaa17a95046fcf732fc00287cdb3346b9
:1048cc0019aa17a95046fbf797fe002808db199a7e
:1048dc00179b1a44189b1d44ad1a1895179277e034
:1048ec001a9f00231b93334616aa17a95046fbf7b1
:1048fc00d2fe002860db9df85830a02b5cd13346eb
:10490c001baa17a95046fbf777fe002854dbd9f8f1
:10491c008002fcf7fafe804600284dd040f20913c5
:10492c009f420fd0179b1b9a13441793404636f0a7
:10493c00c1fc179b1b9a13441793ed1a189b1d442b
:10494c00189545e0334616aa17a95046fbf7a3fe67
:10495c0000282edb9df85830162b2ad8b54a22fa9f
:10496c0003f313f0010f24d033461baa17a95046aa
:10497c00fbf742fe00281cdb0023c8f804301b9810
:10498c00c8f80800013035f0bff8c8f80c0080b149
:10499c001b9f3a461799514438f02bfbd8f80c3032
:1049ac000022da55d9f82430c8f80030c9f8248030
:1049bc00bfe7404636f07efc6ff08b0306930ee2a9
:1049cc001b9a179b1a44189b1d44ad1a18951792e5
:1049dc00189b002b21dd179a551c17951af80220ed
:1049ec00013b1893822a3ff4f5ada42a3ff433ae71
:1049fc00812a3ff47eae862a3ff4bcaea02a3ff457
:104a0c0043af33461baa17a95046fbf7f5fd002808
:104a1c00d6da6ff08b030693e1e10b9b0693dee194
:104a2c006ff08b030693dae16ff08b030693d6e1fc
:104a3c0023461baa1aa95046fbf7defd002840f3bb
:104a4c00f8831a9850441b9909f53872142908d028
:104a5c0030f02ffd002880f2c9816ff08b0bfff72f
:104a6c0033bb036845688468c168c9f8e032556097
:104a7c009460d16003691361b8e123461baa1aa99b
:104a8c005046fbf7ecfe002808dd1a9850441b99a1
:104a9c0009f53372142908d030f00bfd002880f290
:104aac00a5816ff08b0bfff70fbb0368456884681b
:104abc00c168c9f8cc3255609460d1600369136148
:104acc0094e199f95c33002bc0f2638399f85c3361
:104adc0043f0800389f85c3399f85f3365f3820304
:104aec0089f85f3300231a930193009323461baa82
:104afc001aa95046fbf753ffa0b91b9b002b00f0e3
:104b0c006083022b00f35d831a991af80120a9f82f
:104b1c00f82240f06b8151444b7842ea0322a9f809
:104b2c00f82263e1002880f261816ff08b0bfff7b4
:104b3c00cbba4f2b47d0972b22d04e2b3cd0199b66
:104b4c009d4240f25381009523461aaa19a950465a
:104b5c00fcf7e5fa10f1940ff1d00028c0f2718344
:104b6c001a9b4a2b21d0e4d8482b10d016d8472baf
:104b7c00e5d199f8fa3243f0020389f8fa32dee70c
:104b8c0099f8fa3243f0010389f8fa32d7e799f829
:104b9c00fa3243f0040389f8fa32d0e799f8fa3282
:104bac0043f0080389f8fa32c9e799f8fa3243f06e
:104bbc00100389f8fa32c2e799f8fa3243f020036d
:104bcc0089f8fa32bbe799f8fa3243f0400389f8d6
:104bdc00fa32b4e799f85c3303f01002002a0b9a0e
:104bec0008bf6ff0c502069213f0080f40f0d9828f
:104bfc0043f0080389f85c3399f85f3365f30003dd
:104c0c0089f85f330023169317930a94234617aa47
:104c1c0016a95046fbf7f3fd002864db169b9c425b
:104c2c0040f20083cdf83890dae20e9b03f1300ba2
:104c3c00ece200bf0010480016f0200f07d02b4606
:104c4c001aaa1ba92046fbf7dafd00284bdb102023
:104c5c0034f05aff0646002845d01a98013034f03b
:104c6c0053ff0746706000283ad0ddf868904a463a
:104c7c001b99214438f0bdf9002307f80930c6f818
:104c8c00089086f80c80dbf800303360cbf80060bd
:104c9c00189b199a134418939d4240f29a822b4602
:104cac0019aa18a92046fbf7aafd00281bdb189ba4
:104cbc009d4218d95a1c1b92e65c2b461aaa1ba9ba
:104ccc002046fbf799fc00280ddd06f01f0808f1c3
:104cdc00ff33dbb2012bafd9b8f1040fd8d1abe75e
:104cec00304636f0e7fa6ff08b0bfff7edb999f819
:104cfc005e3313f0010f40f0588243f0010389f842
:104d0c005e3373e000231a931b93019300932346a5
:104d1c001baa1aa95046fbf742fe0028c0f2958246
:104d2c001a9b9c4240f291821af8033089f8203386
:104d3c005ce099f85d3313f0100f40f03a8243f0c9
:104d4c00100389f85d3399f85e3365f3451389f8e0
:104d5c005e33002319931a931b9323461aaa19a99d
:104d6c005046fbf74cfd0028c0f267821a9b002bc3
:104d7c0000f06382234618aa19a95046fbf78bfc56
:104d8c000028c0f25a829df86030802b1ed0812bf7
:104d9c0040f0538299f85d3343f0400389f85d335a
:104dac0023461baa19a95046fbf726fc0028c0f283
:104dbc0044821b9b012b00f34082199b9c4240f2c6
:104dcc003c821af8033089f8f6320fe099f85d331b
:104ddc0043f0200389f85d33e2e70b9b0693069bb7
:104dec0013f1a00f40f01e8201230f93129b139a14
:104dfc0013441293079a9a4270d9079c234613aa1c
:104e0c0012a9099d2846fbf7fafc0028c0f22d8256
:104e1c00002314930094062314aa12a92846fcf725
:104e2c007ef9031e0693c0f22882129b5a1c9442f0
:104e3c00c0f01f82159323460df1470215a9284691
:104e4c00fbf729fc00287ff4aba99df84730012b18
:104e5c003ff49aa90025079b13aa12a9099c204686
:104e6c00fbf7fdfc031e0693c0f20782129804ebbd
:104e7c00000a139c149b912b3ff459aa7ff693a91b
:104e8c00962b3ff456af7ff6c1a9a82b3ff42faf5a
:104e9c0040f2f12293423ff435af972b7ff48fa968
:104eac0099f85d3313f0010f40f0778143f0010363
:104ebc0089f85d3399f85f3365f3c30389f85f3381
:104ecc0000231993254623461baa19a95046fbf724
:104edc0096fc0028c0f2b5810a2430e60f9b002b0b
:104eec0000f0d581cfe10028fff6eea805e209f528
:104efc00337230f0defa8346002800f01182fff79f
:104f0c00e3b813f0020f00f00281089b032b00f0b2
:104f1c00fe800d9bc9f82433002b40f020820d9ba2
:104f2c00c9f82433fde099f8f41289f8f51213f05e
:104f3c00100f3ff4a4a813f0800f0cd1937a8b427e
:104f4c003ff69da8937a002b00f0d180013b89f8a5
:104f5c00f532fff794b8b9f8f83213f0040ff1d02a
:104f6c00ece7002389f8f532089b002b3ff4a2a84c
:104f7c000c9b052b00f082800f2b7fd06ff0ed0b7c
:104f8c00fff7a2b8d9f80c100369d9f81020d9f89a
:104f9c00745200260596d9f818600496d9f8146056
:104fac000396d9f8606002964668019600680090f6
:104fbc00521a294409f54a70fef7a1fe83460028cf
:104fcc007ff482a8012c04d0089b043b012b3ff6f4
:104fdc0071a8d9f8246301238df8683002238df869
:104fec00693004238df86a30aeb1376abfb10df168
:104ffc00680a4ff000081af8015bcdf86c80cdf808
:10500c007080cdf87480cdf87880022d0bd0042df3
:10501c004dd0012d3ed06ff0c50bfff755b8f3699d
:10502c00002be4d12ae0d9f8244084b12a46394631
:10503c002046fbf70bfa0128edd02a46f1692046f1
:10504c00fbf722fa0128e6d12468002ceed11d9b37
:10505c00002b0fdd1e9b6bb12a4639461ba8fbf7b4
:10506c00f5f90128d7d02a46f1691ba8fbf70cfaf1
:10507c000128d0d10df16b035345bcd1d9f8543371
:10508c00002b3ff41ca8089a052a3ff418a89b464d
:10509c00fff71ab8d9f82840d9f81833002bc4d028
:1050ac0001221c92d9f81c231d921e93bde7d9f83e
:1050bc002c40d9f81033002bb7d004221c92d9f80d
:1050cc0014231d921e93b0e76ff0ac0bfef7fcbfe0
:1050dc006ff08c0bfef7f8bf6ff0970bfef7f4bf79
:1050ec006ff0bb0bfef7f0bf9b46fef7edbf002346
:1050fc0089f8f532089b002b3ef4dcaf0c9b052b9a
:10510c00bcd00f2bbad06ff0ed0bfef7ddbf0d9bb3
:10511c00c9f824332bb1002d00f02c810023c9f8e1
:10512c002433002c3ef4abaf7f2389f8f532fef725
:10513c00a6bf6ff08b0bfef7c7bf6ff0ac0bfef783
:10514c00c3bf6ff08b0bfef7bfbf6ff08b0bfef77f
:10515c00bbbf6ff08b0bfef7b7bf6ff08b0bfef77f
:10516c00b3bf6ff08f0bfef7afbf6ff08f0bfef777
:10517c00abbf6ff08f0bfef7a7bf6ff08f0bfef777
:10518c00a3bf6ff08f0bfef79fbf6ff08f0bfef777
:10519c009bbf6ff08f0bfef797bf6ff08f0bfef777
:1051ac0093bf6ff08f0bfef78fbf6ff08f0bfef777
:1051bc008bbf6ff08f0bfef787bf6ff08b0bfef77b
:1051cc0083bf6ff08b0bfef77fbf6ff08b0bfef77f
:1051dc007bbf169b179a134416930a9a9a421fd9af
:1051ec005a1c16921af803400a9b17aa16a9504685
:1051fc00fbf702fa00287ff776ada02c3ff415ad33
:10520c00a12c7ff470ad0e9b03f1340b169c54440f
:10521c00179b002218921d46002b7ff440add8e757
:10522c00ddf83890069b002bbff6e0ad9b46fef7f1
:10523c004bbf6ff08b0bfef747bf6ff08b0bfef77e
:10524c0043bf6ff08b0bfef73fbf6ff08b0bfef77e
:10525c003bbfd9f8246301238df8683002238df805
:10526c00693004238df86a30bfe66ff08b0bfef7c4
:10527c002bbf6ff0830bfef727bfddf818b01bf1c7
:10528c00a00f7ef421af6ff09f03c9f85833d9f803
:10529c001030c9f8783209f51e74d9f87c320093b5
:1052ac0001231faa2146d9f87402fbf77dffb0f148
:1052bc00000bfef609af0023019301230093d9f8ec
:1052cc007c321baa2146d9f87402fbf768fb834693
:1052dc0000287ff408ae1b9bc9f81430d9f878125b
:1052ec00d9f874220a44c9f860200b44c9f8783202
:1052fc00d9f87c2293427ff41cafd9f818201f9b5d
:10530c009a427ff4e9ae99f85c3313f0020f07d19f
:10531c00d9f8000020b1d9f8041000297ff4e7adca
:10532c0099f85e3313f002040ad0089b002b3ff46b
:10533c00fbae0c9b052b3ff4f7ae0f2b3ff4f4aefa
:10534c000023c9f8243399f85c3313f004053ff4b7
:10535c00d8ad0d9ac9f82423002a3ff4d2ad1422fb
:10536c000d9b03f1240109f14c0037f09bfd002843
:10537c007ff4cdae002c7ff4d7aed9f8242399f866
:10538c005c3313f0200f7ff4cead13f0100f3ef40e
:10539c0076ae937a002b3ff4e4ad013b89f8f532fd
:1053ac00fef76dbe2de9f0410446fef756fe061ed3
:1053bc0007dba56e002d07dce26940f285239a42db
:1053cc0015d03046bde8f081681c34f09dfb0746d3
:1053dc0008b32a46616e37f00cfe00237b556766d6
:1053ec0094f85c3343f0010384f85c33e4e72568fc
:1053fc00002de6d06768002fe3d0384634f084fbec
:10540c00804658b13a46294637f0f3fdc4f800807f
:10541c000123a360d5e76ff07c06d2e76ff07c0622
:10542c00cfe708b5fff7beff08bd00b585b0039206
:10543c000123009303aafdf7fcf905b05df804fb0a
:10544c0010b584b000240394012300930b4603aae7
:10545c002146fdf7eef910f1ca0f08bf039804b00e
:10546c0010bd00b585b0039201230093002303aa5d
:10547c00fdf7dff905b05df804fb08b50023fdf777
:10548c00e1fa08bd08b50123fdf7dcfa08bdf0b55b
:10549c0085b005460c4617461e460a6802920df169
:1054ac00070202a9fbf7f7f818b99df80730062b8d
:1054bc0018d023680293334603aa21462846fbf7eb
:1054cc009ef900281edb02980399091a23683a46b4
:1054dc00194428442ff0edff2368039a13442360ea
:1054ec0005b0f0bd334603aa21462846fbf784f8e5
:1054fc00002804db2368039a13442360d9e76ff078
:10550c008b00ede76ff08b00eae700bf2de9f0436d
:10551c00adf25c4d80460f461d4600220192009272
:10552c00134602a98ca804f031fb044620b1204696
:10553c000df25c4dbde8f0833946404606f0eaf9c1
:10554c00044630b18ca804f01bfb02a804f018fb35
:10555c00ede707f50a76314608f50a7006f0daf938
:10556c0004460028eed107f58a69494608f58a6099
:10557c0006f0d0f904460028e4d18ca9484606f080
:10558c001bfd04460028ddd1ddf8782429468ca8c3
:10559c0006f016fd04460028d4d14a46314648464a
:1055ac0004f0bdfc04460028ccd1ddf87824294653
:1055bc00484606f005fd04460028c3d14b462a4652
:1055cc004946484604f011fb04460028bad102ab08
:1055dc002a468ca9384604f004fb04460028b1d1b5
:1055ec008cab2a463946184604f0fffa04460028cc
:1055fc00a8d102aa11468ca804f091fc04460028fc
:10560c00a0d1ddf87824294602a806f0d9fc04467e
:10561c00002897d18cab2a4602a9084604f0e5fa7b
:10562c00044600288ed18cab2a4602a9184604f0f9
:10563c00dcfa0446002885d133462a4631463046ea
:10564c0004f0d3fa044600287ff47caf3146304690
:10565c0006f0b2fc044600287ff474afddf8782421
:10566c002946304606f0acfc044600287ff46aafad
:10567c0002a9304606f0a0fc044600287ff462af75
:10568c00ddf87824294602a806f09afc0446002886
:10569c007ff458af02aa2946104606f0a2fc044635
:1056ac0000287ff44faf32463946304604f037fcc1
:1056bc00044600287ff446afddf8782429463046ae
:1056cc0006f07efc044600287ff43caf39468ca8db
:1056dc0006f072fc044600287ff434afddf8782421
:1056ec002946384606f06cfc044600287ff42aafa5
:1056fc003b462a463146384604f073fa04460028e5
:10570c007ff420af3b462a463146384604f069fa0e
:10571c00044600287ff416af33462a4639463046f5
:10572c0004f05ffa044600287ff40caf32468ca9d3
:10573c00304604f0f4fb044600287ff403afddf898
:10574c0078242946304606f03bfc044600287ff4ba
:10575c00f9ae33462a4602a9304604f042fa044612
:10576c00f0e62de9f04fadf25c4d07460e461546be
:10577c009946914204bf06461746002201920092b8
:10578c00134602a98ca804f001fa044620b1204665
:10579c000df25c4dbde8f08f06f50a788caa4146f7
:1057ac00ddf8800404f015fa044630b18ca804f03e
:1057bc00e7f902a804f0e4f9e9e73c46b2463146c1
:1057cc00384604f016fa002800f07081294620466d
:1057dc0006f0a0f804460028e8d105f50a794946f8
:1057ec0007f50a7006f096f804460028ded105f598
:1057fc008a6b594607f58a6006f08cf80446002837
:10580c00d4d106f58a66304606f091f8002800f0ef
:10581c007d818ca9584606f0cffb04460028c5d1e3
:10582c00ddf88424ddf880148ca806f0c9fb04464e
:10583c000028bbd102aa8ca9504604f070fb044688
:10584c000028b3d1ddf88424ddf8801402a806f01a
:10585c00b7fb04460028a9d18caa1146584604f07f
:10586c005efb04460028a1d1ddf88424ddf8801409
:10587c008ca806f0a5fb0446002897d18caa1146eb
:10588c00404604f04cfb044600288fd1ddf88424fc
:10589c00ddf880148ca806f093fb0446002885d113
:1058ac004b46ddf880248ca9484604f09af904464e
:1058bc0000287ff47baf8cabddf8802419461846aa
:1058cc0004f093f9044600287ff470af8cabddf83c
:1058dc0080244946184604f088f9044600287ff4d1
:1058ec0065af2b46ddf8802402a9284604f079f92f
:1058fc00044600287ff45aaf02abddf88024194629
:10590c00184604f072f9044600287ff44faf02ab3e
:10591c00ddf880242946184604f067f9044600286f
:10592c007ff444af304606f002f8002800f03e81c8
:10593c005a462946584604f0f2fa044600287ff4e9
:10594c0035afddf88424ddf88014584606f038fbba
:10595c00044600287ff42aaf8caa2946104604f08e
:10596c00defa044600287ff421afddf88424ddf84c
:10597c0080148ca806f024fb044600287ff416af94
:10598c002946284606f018fb044600287ff40eaf83
:10599c00ddf88424ddf88014284606f011fb04465b
:1059ac0000287ff403af02aa2946104604f0b7fa88
:1059bc00044600287ff4faaeddf88424ddf8801468
:1059cc0002a806f0fdfa044600287ff4efae8caa7c
:1059dc002946104604f0a3fa044600287ff4e6aeec
:1059ec00ddf88424ddf880148ca806f0e9fa04466e
:1059fc0000287ff4dbae2946484606f0ddfa044663
:105a0c0000287ff4d3aeddf88424ddf8801428461a
:105a1c0006f0d6fa044600287ff4c8ae2b46ddf813
:105a2c00802402a9284604f0dcf8044600287ff400
:105a3c00bdae02abddf880242946184604f0d1f83f
:105a4c00044600287ff4b2ae02abddf88024294670
:105a5c00184604f0c6f8044600287ff4a7ae02aa44
:105a6c004946104604f05bfa044600287ff49eaecb
:105a7c00ddf88424ddf8801402a806f0a1fa0446af
:105a8c0000287ff493ae4b46ddf880248ca902a845
:105a9c0004f0a7f8044600287ff488ae4a46ddf8e7
:105aac008014484606f09dfa04467fe606f58a6b9c
:105abc00584634f069fb00283ff488ae594607f588
